:020000040800F2
:100000004807002045020008FF170008871700086E
:10001000FD170008FB0600088D1D00080000000009
:1000200000000000000000000000000003180008AD
:10003000FD0600080000000001180008051800086F
:100040005F0200085F0200085F0200085F0200080C
:100050005F0200085F0200085F0200085F020008FC
:100060005F0200085F0200085F0200085F020008EC
:100070005F0200085F0200085F0200085F020008DC
:100080005F0200085F0200085F0200080000000035
:100090000000000000000000000000005F020008F7
:1000A0005F0200085F0200085F0200085F020008AC
:1000B0005F0200085F0200085F0200085F0200089C
:1000C0005F0200085F0200085F0200085F0200088C
:1000D0005F0200085F020008811D000800000000A8
:1000E0005F0200085F0200085F02000800000000D5
:1000F0000000000000000000000000005F02000897
:10010000000000005F0200085F0200085F020008B4
:1001100000000000000000000000000000000000DF
:100120005F0200085F0200085F0200085F0200082B
:100130005F02000800000000000000000000000056
:100140000000000000000000000000005F02000846
:100150005F0200085F0200085F0200085F020008FB
:100160005F0200085F0200080000000000000000BD
:10017000000000000000000000000000000000007F
:10018000000000005F020008000000000000000006
:100190005F02000800F002F800F045F80AA090E8BD
:1001A000000C82448344AAF10107DA4501D100F032
:1001B0003AF8AFF2090EBAE80F0013F0010F18BFBA
:1001C000FB1A43F001031847481E0000681E000098
:1001D000103A24BF78C878C1FAD8520724BF30C873
:1001E00030C144BF04680C60704700000023002445
:1001F00000250026103A28BF78C1FBD8520728BF37
:1002000030C148BF0B6070471FB501F0EFFE00F032
:1002100051FA04000020002101F0D2FE401C606071
:100220001FBD10B510BD00F020FA1146FFF7ECFF1E
:1002300001F0BEFD00F050FA03B4FFF7F2FF03BC7B
:1002400000F054FA0948804709480047FEE7FEE7F6
:10025000FEE7FEE7FEE7FEE7FEE7FEE7FEE7FEE776
:1002600004480549054A064B704700009D180008E0
:10027000950100084801002048070020480300209D
:100280004803002053EA020C00F069802DE9F04B8E
:100290004FF00006002B1FBFB3FA83F503FA05F4F5
:1002A00024FA05F65E4012BF1643B2FA82F502FA4E
:1002B00005F4C5F120051EBF22FA05FC44EA0C0432
:1002C000203556EA044C4FEA144418BF641C4FF022
:1002D00000084FF00009904271EB030C39D300295C
:1002E00019BFB1FA81F701FA07F6B0FA80F700FA00
:1002F00007F6C7F120071EBF20FA07FC46EA0C06E6
:100300002037B6FBF4FCA7EB0507103F07F01F0BE7
:10031000CBF120060CFA0BFB2CFA06F644BFB346D1
:100320000026202FA4BF5E464FF0000B5BEA060CB0
:1003300008BF4FF0010B19EB0B09ABFB027C48EB3C
:100340000608C01B06FB02CC0BFB03CC71EB0C01B7
:10035000C1E70B46024641464846BDE8F08B13B55F
:100360004FF000004FF00001AFF30080BDE81C40EB
:10037000704770B5064600F0BFF804680546304681
:100380000A22002100F0BCF82C6070BD10B5431C9F
:1003900002E010F8011B71B18107FAD14FF0013270
:1003A00002C88C1A8C4314EAC211F9D0C01A0A068A
:1003B00003D0C01E10BDC01A10BD0A0401D0801E9B
:1003C00010BD0902FCD0401E10BD4FF0000200B568
:1003D000134694469646203922BFA0E80C50A0E868
:1003E0000C50B1F12001BFF4F7AF090728BFA0E816
:1003F0000C5048BF0CC05DF804EB890028BF40F8E2
:10040000042B08BF704748BF20F8022B11F0804F23
:1004100018BF00F8012B704710B5044610F0030F09
:1004200008BF11F0030F40F015804FF0013E121F7E
:10043000C0F20E8051F8043BA3EB0E0C2CEA030C27
:100440001CEACE1C08BF40F8043BF0D0A1F1040127
:1004500002F10402521E08DB11F8013B002B00F8E8
:10046000013BF7D1114600F083F8204610BD000093
:100470004FF0013C50F8042B51F8043B9A4221D133
:10048000A2EB0C03934313EACC1317D150F8042BBF
:1004900051F8043B9A4215D1A2EB0C03934313EAA3
:1004A000CC130BD150F8042B51F8043B9A4209D1DC
:1004B000A2EB0C03934313EACC13DBD04FF0000004
:1004C000704700BFD01A01BAB1FA81F101F01801EA
:1004D00022FA01F0CB40C1F12001DBB2C0B2C01A58
:1004E0002CFA01F3D11A914311EAC311E6D17047F6
:1004F000704770477047000000487047E8000020D0
:100500002DE9F04791460F4680460446002614F830
:10051000015B2DB100F052F80068405DC007F6D1D4
:100520002B2D02D02D2D18D0641E4A463946204668
:1005300000F04CF827B13968A14201D1C7F800801A
:100540004FF0020471050BD54042002803DDFFF790
:10055000D3FF0460A007BDE8F08746F48066E4E7B7
:100560000028F8DAFFF7C8FF04606FF00040F2E7F8
:100570004FF000020429C0F0128010F0030C3FF489
:1005800026AFCCF1040CBCF1020F18BF00F8012B10
:10059000A8BF20F8022BA1EB0C01FFF718BF5FEA00
:1005A000C17C24BF00F8012B00F8012B48BF00F8E4
:1005B000012B704700487047E800002010B500F09C
:1005C00079F8001D10BD00BFF91900002DE9F05F9A
:1005D000824615468B4600270AF10104B946007889
:1005E000302801D09DB113E014F8010B01277828C1
:1005F00003D0582801D045B10AE00DB1102D07D124
:10060000002714F8010B102502E0082500E00A2558
:100610000026B0460EE005FB080005FB06F10127A9
:100620001FFA80F801EB1046B6F5803F00D3B946BB
:1006300014F8010B294600F041F80028EBDABBF171
:10064000000F05D00FB1641E00E05446CBF8004007
:10065000B9F1000F06D0FFF74FFF02210160C81E5D
:10066000BDE8F09F48EA0640FAE77546FFF7A2FFAB
:10067000AE4605006946534620F00700854618B08F
:1006800020B5FFF7EDFDBDE820404FF000064FF02C
:1006900000074FF000084FF0000B21F00701AC46B7
:1006A000ACE8C009ACE8C009ACE8C009ACE8C009D6
:1006B0008D46704700487047080100203A2800D254
:1006C000303820F02002412A01D3A2F137008842BD
:1006D00001D34FF0FF30704710B50446AFF30080F0
:1006E0002046BDE81040FFF7A7BD000001491820D3
:1006F000ABBEFEE7260002007047FEE770472DE91B
:10070000F0410446876D00F045F9064694F835003F
:100710000025022806D08020606584F8345001202E
:10072000BDE8F0812068016821F0160101602068B1
:10073000416921F080014161206C08B9A06C20B1B1
:100740002068016821F0080101602068016821F03B
:10075000010101600CE000F01DF9801B052807D99C
:1007600020206065032084F8350084F83450D7E7F2
:1007700020680068C007EED194F85C103F208840E4
:10078000B860012084F8350084F834500020C7E7B1
:1007900090F83510022903D080214165012070476F
:1007A000052180F835100068016821F00101016021
:1007B000002070472DE9F84FDFF8B8A1002201248E
:1007C00003254FF00F090AF1040BAAF1040E00BF34
:1007D0000B6804FA02F63340B34273D10F7907F085
:1007E0000307012F01D0022F16D187684FEA420874
:1007F00005FA08FC27EA0C07D1F80CC00CFA08FC33
:100800004CEA070CC0F808C04768B7430E79C6F336
:10081000001696403E4346600E79F643B6070DD06B
:10082000C768560005FA06FC27EA0C07D1F808C08D
:100830000CFA06FC4CEA070CC0F80CC00E7906F066
:100840000306022E10D1D60800EB8608D8F82060E7
:1008500057074FEAD76C09FA0CF7BE430F6907FA3E
:100860000CF73743C8F8207006684FEA420C05FAC7
:100870000CF7BE430F7907F0030707FA0CF737436D
:1008800007604E6816F4403F6DD03B4E376847F422
:1008900080473760366822F0030706F480460096EA
:1008A000364E07EB060CDCF8086897073F0F09FA8D
:1008B00007F826EA0806DFF8C880404503D14FF064
:1008C00000081EE04FE0DFF8BC80404502D14FF049
:1008D000010816E0DFF8B080404502D14FF0020871
:1008E0000FE0DFF8A880404502D14FF0030808E090
:1008F000DFF89C80404502D14FF0040801E04FF042
:10090000070808FA07F848EA0608CCF80888DAF871
:1009100000605746D1F804C09E435FEACC2C00D556
:100920001E433E60DBF800605F46D1F804C09E4382
:100930005FEA8C2C00D51E433E60DEF800607746EF
:10094000D1F804C09E435FEA8C3C00D51E433E6054
:10095000084F083F3E68D1F804C09E435FEACC3C94
:1009600000D51E433E60521C102AFFF431AFBDE893
:10097000F88F0000083C014044380240003001403C
:10098000000002400004024000080240000C024047
:1009900000100240014880687047000008000020F5
:1009A0000248816802781144816070470800002085
:1009B0000B4810B5016841F400710160016841F411
:1009C00080610160016841F480710160032000F0E2
:1009D0006FF80F2000F006F800F024F8002010BD9A
:1009E000003C024070B50D4D04464FF47A712878F2
:1009F000B1FBF0F00A490968B1FBF0F000F00CFB24
:100A000048B9102C07D200222146501E00F030F8C1
:100A100000206C6070BD012070BD00000800002047
:100A2000140000200A4808B5016841F480410160C3
:100A3000006800F4804000900548001F016841F004
:100A400080510160006800F08050009008BD0000F7
:100A500044380240002809DB00F01F0201219140C8
:100A60004009800000F1E020C0F80011704700004C
:100A7000F0B40E4B1B680C46C3F30223C3F1070509
:100A8000042D00D90425191D072901D2002300E0F7
:100A9000DB1E012606FA05F1491E214099409E40C1
:100AA000761E16403143F0BC01F071B90CED00E048
:100AB000064900F0070208684FF6FF03184040EAB5
:100AC0000220034A10430860704700000CED00E06C
:100AD0000000FA052DE9F0470E46050065D0DFF865
:100AE0001481D8F80000F7B200F00700B04207D236
:100AF00088F80070D8F8000000F00700B04254D128
:100B000028683D4C810712D5400703D5206840F482
:100B1000E05020602878000703D5206840F460404A
:100B200020602068A96820F0F00008432060287841
:100B3000C0072DD0304968680839012812D0022832
:100B400013D0032811D00968890700292DDA2168FC
:100B500021F0030101432160FFF71CFF814641F2B0
:100B6000883A0EE009688903EFE709688901ECE734
:100B7000FFF710FFA0EB0901514502D90320BDE8A2
:100B8000F0872068696800F00C00B0EB810FEFD1AE
:100B9000D8F80010404601F00701B14207D90770AC
:100BA000006800F00700B04201D00120E7E7287894
:100BB000400705D52068E96820F4E050084320602C
:100BC0002878000706D52068296920F4604040EAAB
:100BD000C100206000F038F82168084AC1F3031111
:100BE000515CC8400649086006480068FFF7FAFEF5
:100BF0000020C4E7003C024008380240F61F00080D
:100C0000140000200C000020044805490068096811
:100C1000044AC1F38221515CC8407047140000208F
:100C200008380240062000080448054900680968A1
:100C3000044AC1F34231515CC8407047140000209F
:100C40000838024006200008154810B5006810F06A
:100C50000C02144813D01449042A0FD0082A0ED1CC
:100C60000F4C241F2268236802F03F025B0207D565
:100C70002068C0F38810A0FB010106E0084610BD03
:100C80002168C1F38811A1FB00010023FFF7FAFAE4
:100C90002168C1F30141491C4900B0FBF1F010BDCE
:100CA000083802400024F40040787D012DE9F84F17
:100CB00004006ED02078DFF84C93C007A9F104053A
:100CC0004AD009F104000168C1F38101012908D06B
:100CD0000068C0F3810002280AD1D9F80000400260
:100CE00006D52868800337D560680028E1D033E056
:100CF0006068B0F5803F10D0B0F5A02F286810D004
:100D000020F480302860286820F480202860606803
:100D1000A8B1FFF73FFE06460DE0286840F480309A
:100D2000F4E740F480202860F7E700BFFFF732FEC9
:100D3000801B642873D828688003F7D50CE0FFF780
:100D400029FE064605E000BFFFF724FE801B64284D
:100D5000F0D828688003F7D42078DFF8AC828007C9
:100D60004FF0000A3ED5A748001D016811F00C0F96
:100D700008D00068C0F3810002280BD1D9F8000028
:100D8000400207D42868800716D5E068012800D102
:100D900012E033E1E068B8B10120C8F80000FFF7C5
:100DA000F9FD064605E000BFFFF7F4FD801B0228B1
:100DB000C0D828688007F7D52868216920F0F80096
:100DC00040EAC10028600DE0C8F800A0FFF7E2FD8E
:100DD000064604E0FFF7DEFD801B02281FD82868C6
:100DE0008007F7D42078000722D5864F87486169AD
:100DF000703771B101210160FFF7CCFD064604E0B8
:100E0000FFF7C8FD801B022809D838688007F7D58E
:100E10000EE0C0F800A0FFF7BDFD064605E082E049
:100E2000FFF7B8FD801B02287DD838688007F7D40B
:100E30002078400768D5DFF8CCB100270BF13C0BD8
:100E4000DBF80000C0000BD4DBF8001041F080514B
:100E5000CBF80010DBF80000012700F08050009074
:100E60006B4E3068C00510D4306840F4807030603C
:100E7000FFF790FD009005E0FFF78CFD0099401A08
:100E8000022850D83068C005F6D55E4EA0686C3692
:100E900001280FD00528306810D020F00100306004
:100EA000306820F004003060A068B8B1FFF772FD30
:100EB00000900FE0306840F00100F4E740F00400DB
:100EC0003060F7E7FFF766FD0099411A41F288307C
:100ED000814266D830688007F4D50EE0FFF75AFDEE
:100EE000009007E0FFF756FD0099411A41F2883063
:100EF000814256D830688007F4D42FB1DBF8001057
:100F000021F08051CBF80010A069C8B33D49091DFC
:100F10000968C1F3810102294AD00228504607D04E
:100F2000C8F8600000E03CE0FFF734FD04463BE019
:100F30004746C8F86000FFF72DFD064605E000BFF4
:100F4000FFF728FD801B02282BD828688001F7D4E2
:100F5000D4E907010843A16A2E4A490802EB01417E
:100F6000626A41EA8211084394F82C1040EA016158
:100F7000C9F8001001203866FFF70CFD044606E0B2
:100F80003EE000BFFFF706FD001B022809D82868D5
:100F90008001F7D534E000BFFFF7FCFC001B0228FE
:100FA00002D90320BDE8F88F28688001F4D427E037
:100FB0000128F7D0D9F80000E26900F480019142DD
:100FC0001CD1226A00F03F01914217D147F6C0714F
:100FD000626A0140B1EB821F10D1A26A4FF0FF3369
:100FE00000F4403103EB5202B1EB024F06D194F80A
:100FF0002C1000F07060B0EB016F01D00120D1E740
:101000000020CFE70438024000004742800E4742EC
:10101000007000400000FFFF10B5401EB0F1807F5F
:1010200001D3012010BD4FF0E02460610F21601753
:1010300000F0ADFE0020A06107202061002010BD5F
:1010400070B590F83C20012A2CD0012480F83C4057
:10105000022280F83D2003685A689D6822F07006DD
:101060000A6832435A60104B02689A420ED0B2F1BD
:10107000804F0BD00D4B9A4208D00D4B9A4205D0B1
:101080000C4B9A4202D00C4B9A4204D1496825F08D
:1010900080031943916080F83D40002180F83C10A6
:1010A000084670BD022070BD0000014000040040F1
:1010B00000080040000C00400040014010B586B020
:1010C000044614216846FFF780F90D4920688842DC
:1010D00014D10C480021026842F00202026000684C
:1010E00000F002000590C02000900220CDE901012F
:1010F000CDE9031069460448FFF75CFB06B010BD5C
:1011000000080040303802400004024070B5044638
:1011100090F83C0000260D4601280FD0012084F8ED
:101120003C006AB1042A1DD0082A2FD00C2A3FD0D7
:101130000126002084F83C00304670BD022070BDBE
:10114000206800F011FC2068816941F0080181618C
:101150002068816921F004018161206881692A6920
:10116000114311E0206800F027FC2068816941F4F8
:10117000006181612068816921F48061816120685A
:1011800081692A6941EA02218161D2E7206800F081
:101190003FFC2068C16941F00801C1612068C16954
:1011A00021F00401C1612068C1692A69114311E07D
:1011B000206800F059FC2068C16941F40061C161F8
:1011C0002068C16921F48061C1612068C1692A6910
:1011D00041EA0221C161ACE710B5040003D094F8E4
:1011E0003D0010B107E0012010BD002084F83C0054
:1011F000204600F01FF8022084F83D00211D2068E1
:1012000000F054FB012084F8460084F83E0084F886
:101210003F0084F8400084F8410084F8420084F8DC
:10122000430084F8440084F8450084F83D00002021
:1012300010BD000008B500680649884208D106487C
:10124000016841F004010160006800F004000090B2
:1012500008BD0000000800404038024010B50446B8
:10126000022249B104290ED0082913D094F8410074
:10127000012816D0012010BD94F83E000128F9D1B4
:1012800084F83E200FE094F83F000128F2D184F862
:101290003F2008E094F840000128EBD184F840207A
:1012A00001E084F841200122206800F04FFB124940
:1012B0002068884203D1426C42F4004242642068B4
:1012C00088420ED0B0F1804F0BD00C49884208D034
:1012D0000B49884205D00B49884202D00A4988420E
:1012E00004D1816801F00701062903D0016841F0AB
:1012F00001010160002010BD000001400004004019
:1013000000080040000C004000400140704770475A
:10131000F8B5016804460868CA684B6910F00F0FF9
:101320004FF0000559D003F0010602F490773743DF
:1013300065D0C10705D0D10503D5616C41F001012D
:101340006164410705D5D90703D0616C41F0020102
:101350006164810705D5D90703D0616C41F00401B0
:101360006164010707D502F02001314303D0616CAD
:1013700041F008016164616C00293AD0800604D50F
:10138000900602D5204600F0BFFB20684069616CE2
:10139000C0F38010090700D460B3204600F08DFB35
:1013A00020684069400621D52068143050E8001FAD
:1013B00021F0400140E80012002AF5D1E06BA8B10D
:1013C00072490165E06BFFF7E3F9002811D0E06B8B
:1013D000016D01B0BDE8F040084783060FD59306C4
:1013E0000DD52046BDE8F84000F08EBB2046FFF743
:1013F0008EFFF8BD2046FFF78AFF6564F8BD266BB7
:101400002023012E7ED1C6067CD5D6067AD5086863
:101410004868009048694FF0020640064DD5E26BDF
:10142000106840684FF480770004000C3AD0A18D1A
:10143000814237D9E085D069B8422DD020680C3080
:1014400050E8001F21F4807140E80012002AF5D115
:101450002068143050E8001F21F0010140E800121C
:10146000002AF5D12068143050E8001F21F0400117
:1014700040E80012002AF5D184F842302563206844
:101480000C3050E8001F21F0100140E80012002A43
:10149000F5D1E06BFFF733F96663A08DE18D401A5B
:1014A00081B206E0A18D8142A8D1D069B842A5D110
:1014B00066632046FFF72AFFF8BDA08DE18D401A34
:1014C00081B2E08D0028F7D00029F5D020680C30DB
:1014D00050E8002F22F4907240E80027002FF5D149
:1014E0002068143050E8002F22F0010240E8002765
:1014F000002FF5D184F84230256320680C3050E885
:10150000002F00E006E022F0100240E80023002B4C
:10151000F3D1CDE705062BD5150629D594F8410062
:101520002128C9D1A068B0F5805F01D12069B0B190
:10153000206A411C2162216800784860E08C401ECE
:101540000004000CE084B7D12068C16821F080015C
:10155000C1602068C16841F04001C160F8BD206AE7
:101560000088C0F308004860206A801C2062E5E71C
:101570004006F3D55006F1D5CA68204622F0400255
:10158000CA6084F8413000F0FDF8F8BDAD1A0008DB
:1015900070B5040004D094F84100002510B106E0B5
:1015A000012070BD84F84050204600F023F824202C
:1015B00084F841002068C16821F40051C1602046D0
:1015C00000F004FB2068016921F49041016120686A
:1015D000416921F02A0141612068C16841F400514C
:1015E000C1606564202084F8410084F8420065638E
:1015F000002070BD10B586B0044614216846FEF781
:10160000E4FE17492068884228D116480021026864
:1016100042F400320260006800F400300590114886
:101620001038026842F001020260006800F0010018
:1016300005900C2000900220CDE9010103200390C9
:101640000720049069460848FFF7B4F800221146C5
:101650002620FFF70DFA2620FFF7FCF906B010BD93
:1016600000440040403802400000024090F8423000
:10167000202B01D00220704721B11AB1002303634F
:1016800000F02ABB0120704730B40068124988423C
:101690001FD11248C2780021114B0A2A0AD00D2A04
:1016A00008D004783F2C0BD201780B44491C017000
:1016B0001A7006E0027822B1027899540122427031
:1016C0000170064906480122C91C30BC4838FFF7A2
:1016D000CDBF30BC70470000004400400000002037
:1016E000A80000202DE9F843044690F841009846F0
:1016F00016460D46202802D00220BDE8F88385B1A9
:101700007EB100206064212084F84100FFF742F997
:10171000A6848146E684A0682027B0F5805F02D0C9
:1017200003E00120E9E7206910B12E4600250EE014
:1017300000260CE08021204600F0E9FAA8B9C6B1E5
:1017400016F8010B21684860E08C401EE084E08CB4
:101750004B464FF00002CDF800800028EAD14FF050
:101760004001204600F0D3FA40B184F841700320D4
:10177000C3E735F8020BC0F30800E3E784F84170D3
:101780000020BAE77047FEE710B58AB0002407943E
:101790001C2168460894FEF718FE17481549016099
:1017A0005321C0E9011444F61F61C0E903148461A8
:1017B000FFF712FD08B172B6FEE7079407A90E48BD
:1017C0000894FFF73DFC08B172B6FEE76020009078
:1017D00040F2DC50CDE90104002269460648049439
:1017E000FFF794FC08B172B6FEE70348FFF766FC0A
:1017F0000AB010BD0008004018000020FEE7FEE718
:1018000070477047FFF7CCB830B593B030216846C9
:10181000FEF7DBFD14210CA8FEF7D7FD1D480024C0
:10182000016841F080510160006800F08050119023
:101830001948016821F4404141F400410160006809
:10184000022500F4404011900120039010200490E4
:10185000009506950820CDE907405420CDE90905FB
:1018600004200B906846FFF721FA08B172B6FEE734
:101870000F20CDE90C054FF48050CDE90E40022138
:101880000CA81094FFF726F9002801D072B6FEE7E5
:1018900013B030BD4038024000700040024801687B
:1018A00041F470010160704788ED00E0F0B5026816
:1018B0001F4B204C204D214E4FF0804C984207D0BA
:1018C000604505D0A04203D0A84201D0B04203D168
:1018D00022F070074A683A43984210D060450ED013
:1018E000A0420CD0A8420AD0B04208D0144CA0426A
:1018F00005D0144CA04202D0134CA04203D122F4D4
:101900004074CA6822434C6922F0800222438C68EA
:10191000C4620C688462984201D10969016301685C
:1019200041F004010160012141610260F0BD00004D
:10193000000001400004004000080040000C00408E
:1019400000400140004401400048014010B501F052
:101950001F030121046A99408C430462016A9A4082
:101960001143016210BD000030B5036A026A22F023
:10197000010202624268846924F073050C682C43FA
:1019800023F002058B682B430A4DA8420BD123F0AC
:101990000805CB6822F440722B434D6923F0040301
:1019A00015438A692A43426084614968416303623E
:1019B00030BD00000000014030B5026A036A23F028
:1019C00010030362436884690D6824F4E64444EA22
:1019D00005248D6822F0200242EA05120B4DA84230
:1019E0000ED1CD6822F0800242EA05124D6923F43F
:1019F000406343EA85038D6922F0400243EA850390
:101A00004360846149688163026230BD0000014027
:101A100030B5036A026A22F4807202624268C469C5
:101A200023F4007324F073050C682C438D6843EA9B
:101A300005230C4DA8420ED1CD6823F4006343EA80
:101A400005234D6922F4405242EA05128D6923F4C0
:101A5000806342EA05124260C4614968C16303625F
:101A600030BD00000000014030B5046A026A22F473
:101A7000805202624268C3690D6823F4E64343EA78
:101A800005238D6824F4005444EA0534064DA84229
:101A900004D14D6922F4804242EA85124260C3615A
:101AA00049680164046230BD0000014010B5806BDC
:101AB0000021C185FFF72BFC10BD01680C3151E8F6
:101AC000002F22F4907241E80023002BF5D1016829
:101AD000143151E8002F22F0010241E80023002BCD
:101AE000F5D1016B012909D101680C3151E8002FB2
:101AF00022F0100241E80023002BF5D1202180F8CC
:101B0000421000210163704708B590F84210222965
:101B100001D0022008BD82684FF480539A4201D15F
:101B2000016921B1816A9A421BD04AB10AE0026878
:101B3000816A5268C2F308020A80816A891C08E03F
:101B4000026972B10268526802F07F020A70816A0B
:101B5000491C8162C18D491E0904090CC18503D04D
:101B60001BE002685268F1E70168CA6822F02002AF
:101B7000CA600168CA6822F48072CA6001684A6952
:101B800022F001024A61202180F8421000214163C5
:101B9000026B012A03D0FFF777FD002008BD016327
:101BA00001680C3151E8002F22F0100241E80023B7
:101BB000002BF5D101680A68D20602D50A68496887
:101BC0000091818DFFF7A2FBE7E7000070B50446A6
:101BD00000680169E26821F4405111430161216903
:101BE000A068E26908436169114308432168CA6833
:101BF00049F20C639A430243CA6020684169A269B2
:101C000021F440711143416131492068884202D07A
:101C10003049884202D1FFF707F801E0FEF7F4FFF0
:101C2000E2690023192164253226B2F5004F62686B
:101C300028D0A0FB0101930F9200FEF723FB014681
:101C4000B0FBF5F06FF01802504301EB800006EB9B
:101C50000010B0FBF5F000F0F002B1FBF5F002EB84
:101C60000012B1FBF5F06FF01803584301EB800050
:101C700006EB0010B0FBF5F000F00F0021681044F7
:101C8000886070BDA0FB010192185B41FEF7FAFA73
:101C90000146B0FBF5F00201B1FBF5F06FF018035F
:101CA000584301EB800006EBC000B0FBF5F000F0FC
:101CB000F80002EB4002B1FBF5F0584301EB800065
:101CC00006EBC000B0FBF5F000F00700D6E700001F
:101CD000001001400014014081628285C28500210C
:101CE0004164222180F84210016921B10168CA686B
:101CF00042F48072CA6001684A6942F001024A6196
:101D00000068C16841F02001C160002070472DE9E2
:101D1000F843984617460D460446089E24E0701C7A
:101D200022D0FEF737FEA0EB0800B0421AD8CEB1A1
:101D30002068C168490717D5802D15D0402D13D0D4
:101D40000168C94309070FD4016800254068009065
:101D50002046FFF7B2FE0820606484F8405001205E
:101D6000BDE8F8830320FBE72068006835EA00003F
:101D700004D00020B842D2D00020F1E70120F9E7DA
:101D80000148FFF7C5BA000060000020FEE7090720
:101D9000090E002804DB00F1E02080F800147047F1
:101DA00000F00F0000F1E02080F8141D70470000E3
:101DB00090B0FEF7FDFDFFF727FD244800240168E1
:101DC00041F001010160016801F001010091016829
:101DD00041F002010160006800F002000090FFF78E
:101DE000D3FC1C481A4901604FF4E131C0E90114E9
:101DF0000C21C460C0E904418461C461FFF7C8FBE1
:101E000008B172B6FEE7134800214838FFF726FAFA
:101E100040F2DC5000F0B2F801220F490D48FFF704
:101E200025FC0EA000F0BEF80B4DED1E68780028D2
:101E3000FCD06C700749402248316846FEF7ECFA46
:101E40008DF83F40684600F00DF8EFE7303802406B
:101E5000004400406000002003000020524541443F
:101E6000590A000070B5234D0446A87850B122A14C
:101E70002046FEF7FDFA80B12078642810D069284A
:101E80000ED010E01DA12046FEF7F2FA08B11DA009
:101E900028E00120A87020A024E040F2DC5026E0D9
:101EA0006178202902D050280ED010E0A01CFEF747
:101EB00060FA002800DA40422178642900D04042CC
:101EC00000F040F817A00DE06078202801D016A09F
:101ED00008E0A01CFEF74DFAA0F57A71B1F57A7F03
:101EE00004D915A0BDE8704000F05CB880B200F0E5
:101EF00045F8E7E7000000204300000048454C4C4F
:101F00004F000000455252204558504543545F4809
:101F1000454C4C4F0A00000048454C4C4F5F4F4B1E
:101F20000A0000004F4B0A0045525220554E4B4EBE
:101F30004F574E0A000000004552522052414E4772
:101F4000450A00000B4A5142904201DA104602E075
:101F5000884200DD08460849898808444FF47A71B0
:101F6000884202DB4900884200DD084680B200F06A
:101F700005B8000070FEFFFF000000204FF47A72E9
:101F80005100904201D2104602E0884200D9084632
:101F900002498880024909684863704700000020B0
:101FA0001800002010B50446FEF7F0F9214682B271
:101FB000BDE8104032230148FFF794BB60000020C9
:101FC00010B500290AD00878002807D005487844C1
:101FD000FEF74EFA002801D0002010BD02487844D8
:101FE00010BD0000620000005A0000004FF0407079
:101FF000E1EE100A7047000000000000000001023E
:1020000003040607080900000000010203040000A1
:10201000402100080000002018000000D001000846
:10202000582100081800002030070000EC010008CB
:102030001001000043000000F8FFFFFF0040404097
:10204000404040404040414141414140404040408B
:102050004040404040404040404040404005020237
:1020600002020202020202020202020202202020F6
:102070002020202020202002020202020202909052
:102080009090909010101010101010101010101050
:1020900010101010101010100202020202028888A4
:1020A00088888888080808080808080808080808B0
:1020B0000808080808080808020202024000000098
:1020C0000000000000000000000000000000000010
:1020D0000000000000000000000000000000000000
:1020E00000000000000000000000000000000000F0
:1020F00000000000000000000000000000000000E0
:1021000000000000000000000000000000000000CF
:1021100000000000000000000000000000000000BF
:1021200000000000000000000000000000000000AF
:10213000000000000000000000000000000000009F
:1021400000000000DC05000001000000100000009D
:08215000000000000024F4006F
:040000050800019559
:00000001FF
